:0400000072EF09F0A2
:100800000001000A006400E8031027010010000046
:100810000100103031323334353637383961626394
:1008200064656600204469612025782D0054696D57
:100830003A25783A002E25642000257820002E25C0
:1008400064005765640054756500467269004D6F19
:100850006E0053756E005361740054687500414D0D
:0908600000504D00480054000056
:10086A0027EC0BF0000E7DEC0AF0C8EC0BF0030E3F
:10087A00026EE80E016EF4EC0AF038AC55D038AAD4
:10088A000CD00E0E0A6E610E0B6E0B50D8A4080E19
:10089A000C6E010EDAEC0AF00BD00E0E0A6E5E0E2A
:1008AA000B6E0B50D8A4080E0C6E010EDAEC0AF08F
:1008BA001F0E3814386E396AE10E0D6E0E6A3A0E42
:1008CA000F6ED8C010F0D9C011F06DEC06F0F30E1F
:1008DA000D6E010E0E6E310E0F6ED6C010F0D7C01F
:1008EA0011F06DEC06F0E90E0D6E010E0E6E2D0E76
:1008FA000F6E38C010F039C011F06DEC06F0000E22
:10090A000A6EE90E0B6E010E0C6E000EDAEC0AF09E
:10091A00F30E086E010E096E0CEC0AF0E10E086E79
:10092A00096A0CEC0AF031D03F0E3814386E396A75
:10093A00E10E0D6E0E6A3A0E0F6ED8C010F0D9C0D5
:10094A0011F06DEC06F0F30E0D6E010E0E6E310E07
:10095A000F6ED6C010F0D7C011F06DEC06F0E90E9C
:10096A000D6E010E0E6E2D0E0F6E38C010F039C0CE
:10097A0011F06DEC06F0000E0A6EE90E0B6E010E18
:10098A000C6E000EDAEC0AF0C3D7030EB6EC09F0CF
:10099A00C8EC0BF0DF0E0D6E010E0E6E240E0F6EFC
:1009AA00D2C010F0D3C011F06DEC06F0D50E0D6E6A
:1009BA00010E0E6E290E0F6ED0C010F0D1C011F0CC
:1009CA006DEC06F0CB0E0D6E010E0E6E3A0E0F6E2A
:1009DA00CEC010F0CFC011F06DEC06F0000E0A6E1A
:1009EA00DF0E0B6E010E0C6E020EDAEC0AF0D50E5B
:1009FA00086E010E096E0CEC0AF0CB0E086E010EA1
:100A0A00096E0CEC0AF03FD0520E086E0850D8A4BA
:100A1A00080E096E0CEC0AF012004E0E086E085011
:100A2A00D8A4080E096E0CEC0AF01200460E086EE5
:100A3A000850D8A4080E096E0CEC0AF01200420EF7
:100A4A00086E0850D8A4080E096E0CEC0AF01200C1
:100A5A005A0E086E0850D8A4080E096E0CEC0AF05B
:100A6A0012004A0E086E0850D8A4080E096E0CEC43
:100A7A000AF01200560E086E0850D8A4080E096E25
:100A8A000CEC0AF01200B40E0001D425D96E010E46
:100A9A00D521DA6EDF50460AD8B4E3D70B0AD8B4A8
:100AAA00BCD71E0AD8B4B0D7070AD8B4BFD7030A2E
:100ABA00D8B4C5D7240AD8B4DDD7070AD8A41200F7
:100ACA00C7D7F70E086E096A000EC0EC0AF0F70ED7
:100ADA00086E096A010EC0EC0AF0F70E086E096A80
:100AEA00020EC0EC0AF0BB0E086E010E096E030E70
:100AFA00C0EC0AF03A501EEC09F01E0E3A6033D0F0
:100B0A000001DA51DB11D8A42ED0808021EE00F04A
:100B1A0010EE60F01B0EDBCFE3FFE806FCE2000EEE
:100B2A00C66F000EC56FACA2FED7C551600FD96E55
:100B3A00DA6ADF50AD6EC54BC62BC6BFF4D7C651B5
:100B4A0004E11B0EC55DD8A0EED7C00E80EC0BF0F9
:100B5A00000E72EC0BF03A50060F3A6E000E0001CE
:100B6A00DB6F060E36D01E0E3A6035D0060E000137
:100B7A00DA19DB11D8A42FD0808221EE37F010EEDB
:100B8A007CF01A0EDBCFE3FFE806FCE2000EC86F2A
:100B9A00000EC76FACA2FED7C7517C0FD96EDA6AB6
:100BAA00DF50AD6EC74BC82BC8BFF4D7C85104E19C
:100BBA001B0EC75DD8A0EED7C30E80EC0BF0010E5A
:100BCA0072EC0BF03A50060F3A6E000E0001DB6F22
:100BDA000C0EDA6F76D01E0E3A6030D00C0E000181
:100BEA00DA19DB11D8A42AD0808421EE1CF010EE89
:100BFA0097F01A0EDBCFE3FFE806FCE2000ECA6F9D
:100C0A00000EC96FACA2FED7C951970FD96EDA6A26
:100C1A00DF50AD6EC94BCA2BCABFF4D7CA5104E123
:100C2A001B0EC95DD8A0EED7C60E80EC0BF0020EE3
:100C3A0072EC0BF03A50060F3A6E43D0230E3A6428
:100C4A003BD0000E0001DD6F010EDC6F21EE67F074
:100C5A0010EEB2F0120EDBCFE3FFE806FCE2000E64
:100C6A00CC6F000ECB6FACA2FED7CB51B20FD96EB0
:100C7A00DA6ADF50AD6ECB4BCC2BCCBFF4D7CC515C
:100C8A0004E1130ECB5DD8A0EED7000ECD6FCD5187
:100C9A00030DF350C00980EC0BF0060E72EC0BF05A
:100CAA000001CD2B050ECD65F2D7000E026E640E43
:100CBA00016EF4EC0AF005D0000E0001DD6F010EA2
:100CCA00DC6F030E026EE80E016EF4EC0AF01200FD
:100CDA00100E146EEDD0250E1918D8B409D00DC017
:100CEA00D9FF0EC0DAFF19C0DFFF0D4A0E2AE0D085
:100CFA00000E166E02D0168E18D00F2A0F04126E2E
:100D0A0012C0F6FF080EF76E0800F5CF19F0195059
:100D1A00000AD8B4DAD0640AD8B407D00D0AD8B415
:100D2A0004D0110AD8B4E7D7C3D016BE12D01450D3
:100D3A00D96EDA6ADECF17F0DDCF18F0020E14266C
:100D4A0018AE43D0030E1612176C181ED8B0182A04
:100D5A003CD01450D96EDA6ADECF17F0DDCF18F026
:100D6A00020E142632D0010E196E1950020DF350DC
:100D7A00010F126E12C0F6FF080EF76E0900F55049
:100D8A00175C0900F5501858D8A027D0192A050E63
:100D9A001918D8B422D0E9D7010E196E1950020DCC
:100DAA00F3500B0F126E12C0F6FF080EF76E090011
:100DBA00F550175C0900F5501858D8A00ED0192A1A
:100DCA00040E1918D8B409D0E9D71650800B000AB6
:100DDA00D8B4C9D7800AD8B4DFD716C012F0030E28
:100DEA001216D8B408D00DC0D9FF0EC0DAFF2D0EE6
:100DFA00DF6E0D4A0E2A19C015F056D01550020D95
:100E0A00F350010F126E12C0F6FF080EF76E0900BA
:100E1A00F5CF03F00A00F5CF04F017C001F018C0AF
:100E2A0002F0E3EC09F001C008F002C009F0000E7C
:100E3A000B6E0A0E0A6E9FEC0AF00850300F196EFC
:100E4A002BD017C001F018C002F01550020DF35054
:100E5A000B0F126E12C0F6FF080EF76E0900F5CFDF
:100E6A0003F00A00F5CF04F0E3EC09F001500F0B90
:100E7A00136E1350130F126E12C0F6FF080EF76EA0
:100E8A000800F5CF19F008D01650800B000AD8B424
:100E9A00B5D7800AD8B4D5D70DC0D9FF0EC0DAFFAE
:100EAA0019C0DFFF0D4A0E2A15061528D8A4ECD75B
:100EBA000F2A0F04126E12C0F6FF080EF76E080012
:100ECA00F5CF19F01950D8A406D70DC0D9FF0EC016
:100EDA00DAFF000EDF6E1200EB0E0D6E0E6A3F0E89
:100EEA000F6EDFC010F0116A6DEC06F0090E0A6E83
:100EFA00EB0E0B6E0C6A000EDAEC0AF0EB0E0D6EBE
:100F0A000E6A350E0F6EE0C010F0116A6DEC06F035
:100F1A00EB0E086E096A0CEC0AF0250E72EC0BF067
:100F2A00500E0001DF613AD0818C020E1B6E040E56
:100F3A001A6EBA0EE82EFED71A2EFCD71B2EFAD737
:100F4A0000D0819C020E1B6E040E1A6EBA0EE82E99
:100F5A00FED71A2EFCD71B2EFAD700D021EEA9F005
:100F6A0010EE29F00A0EDBCFE3FFE806FCE2000EE2
:100F7A00356E000E346EACA2FED73450290FD96EEE
:100F8A00DA6ADF50AD6E344A352A35BEF4D73550A9
:100F9A002AE1130E345CD8B026D0EDD7500EDF65A7
:100FAA0021D0819C21EE9CF010EE1CF00C0EDBCFC0
:100FBA00E3FFE806FCE2000E376E000E366EACA2C6
:100FCA00FED736501C0FD96EDA6ADF50AD6E364A3C
:100FDA00372A37BEF4D7375006E1130E365CD8B03D
:100FEA0002D0EDD7819CEB0E0D6E0E6A3F0E0F6E8E
:100FFA003AC010F0116A6DEC06F0000E0A6EEB0EA4
:10100A000B6E0C6A000EDAEC0AF0EB0E0D6E0E6A2D
:10101A003E0E0F6EDEC010F0116A6DEC06F0EB0E9C
:10102A00086E096A0CEC0AF0DF0E72EC0BF0430E44
:10103A0072EC0BF0060E0A6E660E0B6E0B50D8A4FD
:10104A00080E0C6E000EDAEC0AF00F0E0A6E640E31
:10105A000B6E0B50D8A4080E0C6E000EDAEC0AF0D8
:10106A001200000E926E809080928094819C949CD3
:10107A00AC9CAC8AAC98AC94B896AB8E0C0EAF6EA6
:10108A00720ED36E0F0EC16E27EC0BF08EEC0BF0C6
:10109A00000E026E0A0E016EF4EC0AF062EC0BF01E
:1010AA00BCEC0BF00EEC0BF00001DF6F0EEC0BF05A
:1010BA000001E06F0EEC0BF03A6E0EEC0BF0000143
:1010CA00DE6F71EC07F022EE26F012EE00F0230E2E
:1010DA00DBCFE3FFE806FCE2000E0201256F000EFB
:1010EA00246FACA2FED7000E02012425D96E020E8F
:1010FA002521DA6EDF50AD6E244B252B25BFF1D7A3
:10110A00255104E1230E245DD8A0EBD7030E026E0D
:10111A00E80E016EF4EC0AF005D066EC05F071EC0D
:10112A0007F0F4D70001DC51DD11D8B4F6D735EC5D
:10113A0004F0030E026EE80E016EF4EC0AF0000EE3
:10114A000001DD6F000EDC6F000EDB6F000EDA6F40
:10115A0059EC0AF035EC0AF0070E026ED00E016E59
:10116A00F4EC0AF091D7536520656E63656E646985
:10117A006F206C61203B626F6D62696C6C6120311B
:10118A000D00536520656E63656E64696F206C613E
:10119A0020626F6D62696C6C6120330D00536520AB
:1011AA00656E63656E64696F206C6120626F6D6243
:1011BA00696C6C6120320D00426F6D62696C6C6102
:1011CA0073204170616761646173200D0054656D1D
:1011DA00706572617475726120416C7461200D00D2
:1011EA0054656D70657261747572612049646561D8
:1011FA006C0D0041706167616E646F204C45445309
:10120A000D00204D6F746F72206F6666200D004DC1
:10121A006F746F72204F6E200D00534D54577446F1
:10122A0073001B1B000E111100001B1B0011110E75
:01123A0000B3
:10123C001F6EC30E086E010E096E050EC0EC0AF08F
:10124C001FC020F0216A21BE06D0215008E11E0EDD
:10125C00205CD8B004D080888096809A120021BE81
:10126C0037D0215004E11E0E205CD8A031D021BE15
:10127C0006D021502DE1240E205CD8B029D08098C6
:10128C008086809ACF0E80EC0BF0050E72EC0BF082
:10129C0021EE7AF010EE0CF0120EDBCFE3FFE80635
:1012AC00FCE2000E236E000E226EACA2FED7225082
:1012BC000C0FD96EDA6ADF50AD6E224A232A23BE98
:1012CC00F4D7235008E1130E225CD8B01200EDD7EE
:1012DC0080988096808A12007C0EF66E160EF76E41
:1012EC00000EF86E02EE26F010EE24F00900F5CF99
:1012FC00EEFFE550E150FAE1700EF66E110EF76E4E
:10130C00000EF86E01EE00F010EECBF00900F5CFF8
:10131C00EEFFE550E150FAE1860EF66E170EF76E11
:10132C00000EF86E00EEF5F010EE0AF00900F5CFA5
:10133C00EEFFE550E150FAE101EECBF0320EEE6A31
:10134C00E806FDE100EECEF0270EEE6AE806FDE1C0
:10135C003A6A396A386A000EF86E000136EF08F006
:10136C00046ED00E9BEC0BF00450B1EC0BF0D10ED4
:10137C00A6EC0BF0000E50EC0BF0036E03500001CA
:10138C00D46FD56B000E50EC0BF0036E03500001C4
:10139C00D26FD36B000E50EC0BF0036E03500001B8
:1013AC00D06FD16B010E50EC0BF0036E03500001AB
:1013BC00CE6FCF6BC8EC0BF01200000E076E000E58
:1013CC00066E03500410D8B41CD0010E056E04D068
:1013DC00D89003360436052A04AEFAD7D8900636D0
:1013EC0007360350015C04500258D8A005D00350B6
:1013FC00015E0450025A0680D89004320332052E46
:10140C00EDD706C001F007C002F0120014D008C0DE
:10141C00F6FF09C0F7FFF86A070EF76403D008005F
:10142C00F55005D0F6CFE1FFF7CFE2FFE75072ECB5
:10143C000BF0084A092A08C0F6FF09C0F7FFF86A42
:10144C00070EF76403D00800F55005D0F6CFE1FF86
:10145C00F7CFE2FFE7500009D8B41200D8D7809834
:10146C008096809A21EE8DF010EE01F00E0EDBCFFF
:10147C00E3FFE806FCE2000E116E000E106EACA24B
:10148C00FED71050010FD96EDA6ADF50AD6E104ADC
:10149C00112A11BEF4D7115005E10F0E105CD8B013
:1014AC001200EDD7120080908092809421EE52F0C1
:1014BC0010EE01F0140EDBCFE3FFE806FCE2000EA9
:1014CC00176E000E166EACA2FED71650010FD96E19
:1014DC00DA6ADF50AD6E164A172A17BEF4D71750CA
:1014EC0005E1140E165CD8B01200EDD71200046E94
:1014FC00D00E9BEC0BF00450B1EC0BF0D10EA6EC23
:10150C000BF0000E50EC0BF0036E03500001D86F83
:10151C00D96B000E50EC0BF0036E03500001D66F2C
:10152C00D76B010E50EC0BF0036E0350386E396A1A
:10153C0012000A500B10D8B418D0010E0C6E04D047
:10154C00D8900A360B360C2A0BAEFAD70A50085C28
:10155C000B500958D8A004D00A50085E0B50095AF9
:10156C00D8900B320A320C2EF1D708C008F009C003
:10157C0009F012000A6E080E0A6012000A50080DDB
:10158C00F350400F80EC0BF0000E0B6E0B50082448
:10159C00D96E000E0920DA6EDF5072EC0BF00B2ABC
:1015AC00070E0B64F3D712000D6E0D50D8A408D0A3
:1015BC000A500F0B80090E6E0E5080EC0BF007D00A
:1015CC000A500F0BC0090E6E0E5080EC0BF00BC0C6
:1015DC0008F00CC009F00CEC0AF01200000E046EBE
:1015EC00000E036E0ED0000E066E000E056E054A40
:1015FC00062A065004E1510E055CD8A0F8D7034A20
:10160C00042A0350015C04500258D8A01200EBD7F6
:10161C00000E026E000E016E82A4FED7140EE82E90
:10162C00FED782A403D0D880023603D00250022405
:10163C00026E82B4FED7012A070E0164EDD7025068
:10164C001200000E956E000E946E000E026E140EBB
:10165C00016EF4EC0AF0380E80EC0BF00C0E80EC02
:10166C000BF0060E80EC0BF0010E80EC0BF0120070
:10167C004E6F207365206861207072656E646964BA
:10168C006F206E696E67756E6120626F6D62696C3A
:10169C006C610D00016EC586C7A0FED7C9CF02F0E4
:1016AC000150D8A403D0D2EC0BF002D0CDEC0BF04F
:1016BC00D7EC0BF00250120094948B942F0E016E09
:1016CC00C00EE82EFED7012EFCD78B840D0EE82E13
:1016DC00FED700F094841200076E07C08CFF8B803D
:1016EC008B8200F08B92000E026E010E016EF4ECF8
:1016FC000AF01200076E07C08CFF8B908B8200F0F3
:10170C008B92000E026E030E016EF4EC0AF01200C6
:10171C0093809382500EC76E280EC66E000EC56E57
:10172C00130EC86E9D869E961200026EC580C5B0C3
:10173C00FED79E96C7A612000250B1EC0BF0120019
:10174C00026EC582C5B2FED79E96C7A61200025085
:10175C00B1EC0BF01200016E01C0C9FFD7EC0BF01D
:10176C00C5AC02D0010E1200020E120082B4FED7DC
:10177C0082A4FED782A41200FDD705060E1111110A
:10178C000E0E0000C584C5B4FED7C7501200C58A22
:10179C00C588C5A81200FDD7C59AC588C5A8120072
:0A17AC00FDD79EA6FED79E96120000
:020000040020DA
:08000000FFFFFFFFFFFFFFFF00
:020000040030CA
:0E00000000091F1EFF0081FF0FC00FE00F4020
:00000001FF
