:0400000050EF09F0C4
:100800000001000A006400E8031027010010000046
:100810000100103031323334353637383961626394
:1008200064656600204469612025782D0054696D57
:100830003A25783A002E25642000257820002E25C0
:1008400064005765640054756500467269004D6F19
:100850006E0053756E005361740054687500414D0D
:0908600000504D00480054000056
:10086A0007EC0BF0000E5DEC0AF0A8EC0BF0030E9F
:10087A00026EE80E016ED4EC0AF036AC55D036AAF8
:10088A000CD00E0E0A6E610E0B6E0B50D8A4080E19
:10089A000C6E010EBAEC0AF00BD00E0E0A6E5E0E4A
:1008AA000B6E0B50D8A4080E0C6E010EBAEC0AF0AF
:1008BA001F0E3614366E376ADF0E0D6E0E6A3A0E4A
:1008CA000F6ED8C010F0D9C011F08DEC06F0F50EFD
:1008DA000D6E010E0E6E310E0F6ED6C010F0D7C01F
:1008EA0011F08DEC06F0EB0E0D6E010E0E6E2D0E54
:1008FA000F6E36C010F037C011F08DEC06F0000E06
:10090A000A6EEB0E0B6E010E0C6E000EBAEC0AF0BC
:10091A00F50E086E010E096EECEC09F0DF0E086E9A
:10092A00096AECEC09F031D03F0E3614366E376A9C
:10093A00DF0E0D6E0E6A3A0E0F6ED8C010F0D9C0D7
:10094A0011F08DEC06F0F50E0D6E010E0E6E310EE5
:10095A000F6ED6C010F0D7C011F08DEC06F0EB0E7A
:10096A000D6E010E0E6E2D0E0F6E36C010F037C0D2
:10097A0011F08DEC06F0000E0A6EEB0E0B6E010EF6
:10098A000C6E000EBAEC0AF0C3D7030E96EC09F00F
:10099A00A8EC0BF0E10E0D6E010E0E6E240E0F6E1A
:1009AA00D2C010F0D3C011F08DEC06F0D70E0D6E48
:1009BA00010E0E6E290E0F6ED0C010F0D1C011F0CC
:1009CA008DEC06F0CD0E0D6E010E0E6E3A0E0F6E08
:1009DA00CEC010F0CFC011F08DEC06F0000E0A6EFA
:1009EA00E10E0B6E010E0C6E020EBAEC0AF0D70E77
:1009FA00086E010E096EECEC09F0CD0E086E010EC0
:100A0A00096EECEC09F03FD0520E086E0850D8A4DB
:100A1A00080E096EECEC09F053D04E0E086E085021
:100A2A00D8A4080E096EECEC09F04AD0460E086EFE
:100A3A000850D8A4080E096EECEC09F041D0420E19
:100A4A00086E0850D8A4080E096EECEC09F038D0EC
:100A5A005A0E086E0850D8A4080E096EECEC09F07C
:100A6A002FD04A0E086E0850D8A4080E096EECEC76
:100A7A0009F026D0560E086E0850D8A4080E096E42
:100A8A00ECEC09F01DD0B60E0001D425D96E010E8A
:100A9A00D521DA6EDF50460AD8B4E3D70B0AD8B4A8
:100AAA00BCD71E0AD8B4B0D7070AD8B4BFD7030A2E
:100ABA00D8B4C5D7240AD8B4DDD7070AD8B4C8D75A
:100ACA0021EE52F010EE1AF0190EDBCFE3FFE80622
:100ADA00FCE2000E356E000E346EACA2FED7345026
:100AEA001A0FD96EDA6ADF50AD6E344A352A35BE2E
:100AFA00F4D7355005E1190E345CD8B01200EDD7A1
:100B0A001200F50E086E096A000EA0EC0AF0F50E46
:100B1A00086E096A010EA0EC0AF0F50E086E096A61
:100B2A00020EA0EC0AF0BD0E086E010E096E030E4D
:100B3A00A0EC0AF03850FCEC08F01E0E386033D0F6
:100B4A000001DA51DB11D8A42ED0808021EE00F00A
:100B5A0010EE60F01B0EDBCFE3FFE806FCE2000EAE
:100B6A00C66F000EC56FACA2FED7C551600FD96E15
:100B7A00DA6ADF50AD6EC54BC62BC6BFF4D7C65175
:100B8A0004E11B0EC55DD8A0EED7C00E60EC0BF0D9
:100B9A00000E52EC0BF03850060F386E000E0001B2
:100BAA00DB6F060E36D01E0E386035D0060E0001F9
:100BBA00DA19DB11D8A42FD0808221EE37F010EE9B
:100BCA007CF01A0EDBCFE3FFE806FCE2000EC86FEA
:100BDA00000EC76FACA2FED7C7517C0FD96EDA6A76
:100BEA00DF50AD6EC74BC82BC8BFF4D7C85104E15C
:100BFA001B0EC75DD8A0EED7C30E60EC0BF0010E3A
:100C0A0052EC0BF03850060F386E000E0001DB6F05
:100C1A000C0EDA6F76D01E0E386030D00C0E000142
:100C2A00DA19DB11D8A42AD0808421EE1CF010EE48
:100C3A0097F01A0EDBCFE3FFE806FCE2000ECA6F5C
:100C4A00000EC96FACA2FED7C951970FD96EDA6AE6
:100C5A00DF50AD6EC94BCA2BCABFF4D7CA5104E1E3
:100C6A001B0EC95DD8A0EED7C60E60EC0BF0020EC3
:100C7A0052EC0BF03850060F386E43D0230E38640E
:100C8A003BD0000E0001DD6F010EDC6F21EE81F01A
:100C9A0010EEB2F0120EDBCFE3FFE806FCE2000E24
:100CAA00CC6F000ECB6FACA2FED7CB51B20FD96E70
:100CBA00DA6ADF50AD6ECB4BCC2BCCBFF4D7CC511C
:100CCA0004E1130ECB5DD8A0EED7000ECD6FCD5147
:100CDA00030DF350C00960EC0BF0060E52EC0BF05A
:100CEA000001CD2B050ECD65F2D7000E026E640E03
:100CFA00016ED4EC0AF005D0000E0001DD6F010E82
:100D0A00DC6F030E026EE80E016ED4EC0AF01200DC
:100D1A00100E146EEDD0250E1918D8B409D00DC0D6
:100D2A00D9FF0EC0DAFF19C0DFFF0D4A0E2AE0D044
:100D3A00000E166E02D0168E18D00F2A0F04126EED
:100D4A0012C0F6FF080EF76E0800F5CF19F0195019
:100D5A00000AD8B4DAD0640AD8B407D00D0AD8B4D5
:100D6A0004D0110AD8B4E7D7C3D016BE12D0145093
:100D7A00D96EDA6ADECF17F0DDCF18F0020E14262C
:100D8A0018AE43D0030E1612176C181ED8B0182AC4
:100D9A003CD01450D96EDA6ADECF17F0DDCF18F0E6
:100DAA00020E142632D0010E196E1950020DF3509C
:100DBA00010F126E12C0F6FF080EF76E0900F55009
:100DCA00175C0900F5501858D8A027D0192A050E23
:100DDA001918D8B422D0E9D7010E196E1950020D8C
:100DEA00F3500B0F126E12C0F6FF080EF76E0900D1
:100DFA00F550175C0900F5501858D8A00ED0192ADA
:100E0A00040E1918D8B409D0E9D71650800B000A75
:100E1A00D8B4C9D7800AD8B4DFD716C012F0030EE7
:100E2A001216D8B408D00DC0D9FF0EC0DAFF2D0EA5
:100E3A00DF6E0D4A0E2A19C015F056D01550020D54
:100E4A00F350010F126E12C0F6FF080EF76E09007A
:100E5A00F5CF03F00A00F5CF04F017C001F018C06F
:100E6A0002F0C3EC09F001C008F002C009F0000E5C
:100E7A000B6E0A0E0A6E7FEC0AF00850300F196EDC
:100E8A002BD017C001F018C002F01550020DF35014
:100E9A000B0F126E12C0F6FF080EF76E0900F5CF9F
:100EAA0003F00A00F5CF04F0C3EC09F001500F0B70
:100EBA00136E1350130F126E12C0F6FF080EF76E60
:100ECA000800F5CF19F008D01650800B000AD8B4E4
:100EDA00B5D7800AD8B4D5D70DC0D9FF0EC0DAFF6E
:100EEA0019C0DFFF0D4A0E2A15061528D8A4ECD71B
:100EFA000F2A0F04126E12C0F6FF080EF76E0800D2
:100F0A00F5CF19F01950D8A406D70DC0D9FF0EC0D5
:100F1A00DAFF000EDF6E1200E90E0D6E0E6A3F0E4A
:100F2A000F6E39C010F0116A8DEC06F0090E0A6EC8
:100F3A00E90E0B6E0C6A000EBAEC0AF0E90E0D6EA1
:100F4A000E6A350E0F6E3AC010F0116A8DEC06F07B
:100F5A00E90E086E096AECEC09F0250E52EC0BF06A
:100F6A00500E39601BD0818C020E1B6E040E1A6E55
:100F7A00BA0EE82EFED71A2EFCD71B2EFAD700D0AF
:100F8A00819C020E1B6E040E1A6EBA0EE82EFED754
:100F9A001A2EFCD71B2EFAD700D004D0500E396473
:100FAA0000D0819CE90E0D6E0E6A3F0E0F6E38C09E
:100FBA0010F0116A8DEC06F0000E0A6EE90E0B6E47
:100FCA000C6A000EBAEC0AF0E90E0D6E0E6A3E0EBD
:100FDA000F6EDEC010F0116A8DEC06F0E90E086E95
:100FEA00096AECEC09F0DF0E52EC0BF0430E52ECFE
:100FFA000BF0060E0A6E660E0B6E0B50D8A4080E86
:10100A000C6E000EBAEC0AF00F0E0A6E640E0B6E2E
:10101A000B50D8A4080E0C6E000EBAEC0AF012009F
:10102A00000E926E809080928094819C949CAC9CDD
:10103A00AC8AAC98AC94B896AB8E0C0EAF6E720EAE
:10104A00D36E0F0EC16E07EC0BF06EEC0BF0000EB8
:10105A00026E0A0E016ED4EC0AF042EC0BF09CEC24
:10106A000BF0EEEC0AF0396EEEEC0AF03A6EEEECAA
:10107A000AF0386EEEEC0AF00001DE6F91EC07F030
:10108A0022EE26F012EE00F0230EDBCFE3FFE80695
:10109A00FCE2000E0201256F000E246FACA2FED7FF
:1010AA00000E02012425D96E020E2521DA6EDF50C8
:1010BA00AD6E244B252B25BFF1D7255104E1230E14
:1010CA00245DD8A0EBD7030E026EE80E016ED4ECB5
:1010DA000AF005D086EC05F091EC07F0F4D7000190
:1010EA00DC51DD11D8B4F6D735EC04F0030E026EEC
:1010FA00E80E016ED4EC0AF0000E0001DD6F000E5E
:10110A00DC6F000EDB6F000EDA6F39EC0AF015ECBB
:10111A000AF0070E026ED00E016ED4EC0AF093D7D5
:10112A00536520656E63656E64696F206C61203B50
:10113A00626F6D62696C6C6120310D0053652065C8
:10114A006E63656E64696F206C6120626F6D62699F
:10115A006C6C6120330D00536520656E63656E64A7
:10116A00696F206C6120626F6D62696C6C612032FC
:10117A000D0052656769737472616E646F20486FFF
:10118A00726120792046656368610D00426F6D6265
:10119A00696C6C6173204170616761646173200DD1
:1011AA000054656D706572617475726120416C746A
:1011BA0061200D0054656D706572617475726120ED
:1011CA00496465616C0D0041706167616E646F20EE
:1011DA004C4544530D00534D5457744673001B1B22
:0D11EA00000E111100001B1B0011110E0062
:1011F8001F6EC50E086E010E096E050EA0EC0AF0F2
:101208001FC020F0216A21BE06D0215008E11E0E21
:10121800205CD8B004D080888096809A120021BEC5
:1012280037D0215004E11E0E205CD8A031D021BE59
:1012380006D021502DE1240E205CD8B029D080980A
:101248008086809ACF0E60EC0BF0050E52EC0BF006
:1012580021EE94F010EE0CF0120EDBCFE3FFE8065F
:10126800FCE2000E236E000E226EACA2FED72250C6
:101278000C0FD96EDA6ADF50AD6E224A232A23BEDC
:10128800F4D7235008E1130E225CD8B01200EDD732
:1012980080988096808A12003C0EF66E160EF76EC5
:1012A800000EF86E02EE26F010EE24F00900F5CFDD
:1012B800EEFFE550E150FAE12A0EF66E110EF76ED8
:1012C800000EF86E01EE00F010EECDF00900F5CF3B
:1012D800EEFFE550E150FAE1460EF66E170EF76E96
:1012E800000EF86E00EEF3F010EE0AF00900F5CFEC
:1012F800EEFFE550E150FAE101EECDF0320EEE6A74
:10130800E806FDE100EECEF0250EEE6AE806FDE106
:101318003A6A396A386A376A366A000EF86E000126
:1013280015EF08F0046ED00E7BEC0BF0045091EC36
:101338000BF0D10E86EC0BF0000E30EC0BF0036EC8
:1013480003500001D46FD56B000E30EC0BF0036E28
:1013580003500001D26FD36B000E30EC0BF0036E1C
:1013680003500001D06FD16B010E30EC0BF0036E0F
:1013780003500001CE6FCF6BA8EC0BF01200000EEB
:10138800076E000E066E03500410D8B41CD0010E70
:10139800056E04D0D89003360436052A04AEFAD771
:1013A800D890063607360350015C04500258D8A07E
:1013B80005D00350015E0450025A0680D8900432CA
:1013C8000332052EEDD706C001F007C002F0120067
:1013D80014D008C0F6FF09C0F7FFF86A070EF764D3
:1013E80003D00800F55005D0F6CFE1FFF7CFE2FFB4
:1013F800E75052EC0BF0084A092A08C0F6FF09C06A
:10140800F7FFF86A070EF76403D00800F55005D017
:10141800F6CFE1FFF7CFE2FFE7500009D8B412009A
:10142800D8D780988096809A21EEA7F010EE01F028
:101438000E0EDBCFE3FFE806FCE2000E116E000E95
:10144800106EACA2FED71050010FD96EDA6ADF50C9
:10145800AD6E104A112A11BEF4D7115005E10F0ED6
:10146800105CD8B01200EDD7120080908092809462
:1014780021EE6CF010EE01F0140EDBCFE3FFE8066E
:10148800FCE2000E176E000E166EACA2FED71650C8
:10149800010FD96EDA6ADF50AD6E164A172A17BEE9
:1014A800F4D7175005E1140E165CD8B01200EDD72A
:1014B8001200046ED00E7BEC0BF0045091EC0BF094
:1014C800D10E86EC0BF0000E30EC0BF0036E0350DF
:1014D8000001D86FD96B000E30EC0BF0036E03508F
:1014E8000001D66FD76B010E30EC0BF0036E035082
:1014F800366E376A12000A500B10D8B418D0010E95
:101508000C6E04D0D8900A360B360C2A0BAEFAD7DC
:101518000A50085C0B500958D8A004D00A50085E3D
:101528000B50095AD8900B320A320C2EF1D708C04A
:1015380008F009C009F012000A6E080E0A601200CD
:101548000A50080DF350400F60EC0BF0000E0B6EC4
:101558000B500824D96E000E0920DA6EDF5052ECC9
:101568000BF00B2A070E0B64F3D712000D6E0D500B
:10157800D8A408D00A500F0B80090E6E0E5060ECEC
:101588000BF007D00A500F0BC0090E6E0E5060EC1E
:101598000BF00BC008F00CC009F0ECEC09F01200DD
:1015A800000E046E000E036E0ED0000E066E000EC6
:1015B800056E054A062A065004E1510E055CD8A0BE
:1015C800F8D7034A042A0350015C04500258D8A0F3
:1015D8001200EBD7000E026E000E016E82A4FED739
:1015E800140EE82EFED782A403D0D880023603D08A
:1015F80002500224026E82B4FED7012A070E01644B
:10160800EDD702501200000E956E000E946E000E7B
:10161800026E140E016ED4EC0AF0380E60EC0BF07A
:101628000C0E60EC0BF0060E60EC0BF0010E60EC9B
:101638000BF012004E6F2073652068612070726590
:101648006E6469646F206E696E67756E6120626F83
:101658006D62696C6C610D00016EC586C7A0FED70E
:10166800C9CF02F00150D8A403D0B2EC0BF002D0DD
:10167800ADEC0BF0B7EC0BF00250120094948B9485
:101688002F0E016EC00EE82EFED7012EFCD78B84DC
:101698000D0EE82EFED700F094841200076E07C0E6
:1016A8008CFF8B808B8200F08B92000E026E010EF5
:1016B800016ED4EC0AF01200076E07C08CFF8B9005
:1016C8008B8200F08B92000E026E030E016ED4EC3A
:1016D8000AF0120093809382500EC76E280EC66ED1
:1016E800000EC56E130EC86E9D869E961200026E81
:1016F800C580C5B0FED79E96C7A61200025091ECD1
:101708000BF01200026EC582C5B2FED79E96C7A620
:101718001200025091EC0BF01200016E01C0C9FFDB
:10172800B7EC0BF0C5AC02D0010E1200020E12008D
:1017380082B4FED782A4FED782A41200FDD7050684
:101748000E1111110E0E0000C584C5B4FED7C75086
:101758001200C58AC588C5A81200FDD7C59AC588D4
:0E176800C5A81200FDD79EA6FED79E961200C1
:020000040020DA
:08000000FFFFFFFFFFFFFFFF00
:020000040030CA
:0E00000000091F1EFF0081FF0FC00FE00F4020
:00000001FF
